:020000040800F2
:10000000B805002001010008090100080B010008E3
:100010000D0100080F010008110100080000000098
:1000200000000000000000000000000013010008B4
:1000300015010008000000001701000899250008BC
:100040001B0100081B0100081B0100081B01000820
:100050001B0100081B010008111000081B0100080B
:100060001B0100081B0100081B0100081B01000800
:100070001B0100081B0100081B0100081B010008F0
:100080001B0100081B0100081B0100081B010008E0
:100090001B0100081B0100081B0100081B010008D0
:1000A0001B0100081B0100081B0100081B010008C0
:1000B00041260008BD2600081B0100081B0100089E
:1000C0001B0100081B0100081B0100081B010008A0
:1000D0001B0100081B0100081B0100081B01000890
:1000E000911000081B0100081B010008DFF80CD06C
:1000F00000F0A4FC0048004745510008B805002066
:100100000648804706480047FEE7FEE7FEE7FEE7B1
:10011000FEE7FEE7FEE7FEE7FEE7FEE7E125000873
:10012000ED0000082DE9F0410024061B254671F181
:10013000000605DA01240027D0EB070067EB010178
:10014000161E73F1000605DA0027D2EB070201251F
:1001500067EB030300F064FB86460E4617469C4699
:10016000AC4204D00025D0EB050E65EB010624B1AE
:100170000020D2EB000760EB030C704631463A4694
:100180006346BDE8F081D2B201E000F8012B491EC0
:10019000FBD270470022F6E710B513460A46044624
:1001A0001946FFF7F0FF204610BD30B50446002089
:1001B000034600E05B1C934203D2E05CCD5C401B35
:1001C000F8D030BDF0B480EA0102D40F4200B2EBA7
:1001D000410F02D20246084611464A0042D0C30DE2
:1001E000DDB2C1F3C752AD1A202D35DAC1F31601C5
:1001F00041F4000204B15242C5F1200602FA06F1B0
:100200002A411044B3EBD05F23D0C4B1012DA0EB41
:10021000C35009DCF0BC4FF0004202EAC352DBB22B
:1002200000F5000000F067BB400000F1807000EBBB
:10023000C350A0F1807040EAD170490009E049083C
:1002400041EAC071A0EBC35000F50000400800EB8C
:10025000C350F0BC00F046BB6142012202EB4101F9
:10026000001BF6E7F0BC704781F00041AAE780F080
:100270000040A7E780EA010210B502F00043400009
:1002800022D04A001FD0010E01EB1261C0F35600CC
:10029000C2F3560240F4000042F40002A0FB022028
:1002A00000047F39140400D0401C50EA124001D4ED
:1002B0004000491EC2B20C0604EBD010401C40089E
:1002C000802A02D003E0002010BD20F001000029A8
:1002D00000DA0020184310BD30B480EA010202F0B9
:1002E000004530F0004221F0004013D090B1C30D22
:1002F000D40DC2F31601C0F31600E41A41F4000154
:1003000040F400027D34914201D3641C00E04900B6
:10031000002C02DA30BC002070474FF400000023AC
:10032000914201D3891A034340084FEA4101F7D1B2
:1003300051B1914202D14FF0004105E002D24FF09D
:10034000010101E06FF0010103EBC450284430BC0F
:1003500000F0C8BA2DE9FE4F804681EA0300C00FC5
:100360000C46009021F0004123F00045B8EB02005C
:10037000A94105D24046214690461C460B460246FE
:1003800023F00040104347D0270DC7F30A00C3F302
:100390000A510290401A019040286BDAC3F313000F
:1003A00040F4801B0098924620B10023D2EB030A50
:1003B00063EB0B0B01985946C0F14002504600F028
:1003C00060FA06460D4650465946019A00F078FA02
:1003D00010EB08006141002487EA115284EAE773B8
:1003E0001A4340D0009A62B3019A012A4FEA075299
:1003F00015DC001B61EB02014FF0004202EA0752DC
:10040000CDE90042001C41F5801132462B4600F038
:10041000AFFA03B0BDE8F08F40462146F9E7001B74
:1004200061EB0201001C41F5801300185B412018AC
:10043000A2F5001747EB030140EAD570B6196D41EC
:1004400011E06D084FEA360645EAC0754FEA0752DB
:10045000001B61EB0201001C41F5801149084FEAC5
:1004600030000019514132462B4603B0BDE8F04F31
:1004700000F06FBA0098012240000023D0EB020286
:1004800063EBE073009821464FEAE074B8EB00009C
:1004900061EB0401E9E783F000435BE781F0004191
:1004A00058E72DE9FE4F81EA030404F0004421F0EF
:1004B000004100944FF0000B23F0004350EA010488
:1004C0005ED052EA03045BD0C3F30A54C1F30A5569
:1004D0002C44A4F2F3340194A0FB0254C1F31301A1
:1004E00041F48011C3F3130343F4801301FB02446E
:1004F00000FB034E840A970A44EA815447EA835773
:10050000A4FB076802958D0A05FB07854FEA932C2B
:1005100004FB0C542705029D4FEA065847EA16379C
:10052000B5EB08056EEB070C870E920E47EA8117B4
:1005300042EA8312A7FB0201B6EB0B0164EB000455
:100540002B0D43EA0C335E1844EB1C50DA4651463F
:10055000E7FB0201C5F313044FEA0B3343EA1453DC
:100560004FEA0432019C43EA0603A4F10C0402940E
:10057000009CCDE900B400F0FBF903B0BDE8F08FBA
:1005800000200146F9E72DE9F04D81EA030404F06B
:10059000004B21F0004514464FF0000A23F00041C3
:1005A00050EA050220D054EA01021DD0C5F30A57D3
:1005B0000246C5F31303C1F31300C1F30A5640F416
:1005C000801543F48013A7EB0608101BD64608F2EB
:1005D000FD3873EB050002D308F1010801E0921821
:1005E0005B41B8F1000F03DA00200146BDE8F08D51
:1005F00000204FF48011064684460EE0171B73EB73
:10060000050705D3121B63EB050306434CEA010CF7
:1006100049084FEA300092185B4150EA0107EDD1DA
:1006200052EA030012D082EA040083EA050108437B
:1006300005D0101BAB4106D20122002306E00022A8
:100640004FF0004302E06FF0010253101AEB060076
:100650004CEB085110EB0A0041EB0B01BDE8F04DEB
:1006600000F077B9C10F80EAE0700844CA0796230A
:10067000002100F040B996230022114600F03BB95A
:100680000EB5C10F80EAE0700844CA07002140F2AD
:1006900033438DE80E000A460B4600F069F903B0BB
:1006A00000BD00F0004220F00040C10DC0F3160074
:1006B00040F400007F2901DA00207047962903DC0E
:1006C000C1F19601C84001E096398840002AF4D073
:1006D0004042704720F00040C10DC0F3160040F4C6
:1006E00000007F2901DA00207047962903DCC1F160
:1006F0009601C840704796398840704770B5C1F37D
:100700000A5201F000450024C1F3130140F2FF3307
:1007100041F480119A4201DA002070BD40F2334367
:100720009A42A2F2334203DC524200F0B9F800E0F0
:1007300090402C43F1D0404270BD00F0004230F0B8
:1007400000400AD0C10D01F56071C0F3160042EA05
:100750000151C2084007114370470020014670470D
:1007600030B5041E71F1000404DB4FF00044404238
:1007700064EB0101141E73F1000405DB1C464FF00D
:100780000043524263EB04038B4208BF824230BDF8
:1007900030B5041E71F1000404DB4FF00044404208
:1007A00064EB0101141E73F1000405DB1C464FF0DD
:1007B0000043524263EB0403994208BF904230BDAC
:1007C00001F0004330B421F0004150EA010206D0AC
:1007D0000A0DA2F56072C1F31301002A02DC30BCDD
:1007E00000207047440F44EAC104C100E01830BC47
:1007F00000EBC25000F076B8002801DBC0F10040E9
:10080000002901DBC1F1004181427047002801DB72
:10081000C0F10040002901DBC1F10041884270476E
:100820002DE9F05F0546002092469B468846064625
:10083000814640241BE0284641464746224600F0B8
:100840002FF853465A46C01A914110D31146184604
:10085000224600F016F82D1A67EB01084F46224693
:100860000120002100F00DF817EB00094E41201E79
:10087000A4F10104DFDC484631462A464346BDE880
:10088000F09F202A04DB203A00FA02F10020704792
:100890009140C2F1200320FA03F3194390407047BE
:1008A000202A04DB203A21FA02F00021704721FAC5
:1008B00002F3D040C2F1200291400843194670472C
:1008C000202A06DBCB17203A41FA02F043EAE07314
:1008D00006E041FA02F3D040C2F120029140084301
:1008E000194670470029A8BF7047401C490008BF3F
:1008F00020F00100704710B4B0FA80FC00FA0CF050
:1009000050EA010404BF10BC704749B1CCF1200487
:1009100021FA04F411FA0CF118BF01212143084314
:10092000A3EB0C01CB1D4FEA00614FEA102042BF40
:10093000002010BC704700EBC35010440029A4BF36
:1009400010BC7047401C490008BF20F0010010BCDB
:10095000704710B5141E73F1000408DA401C41F111
:10096000000192185B411A4301D120F0010010BD33
:100970002DE9F04D92469B4611B1B1FA81F202E0A9
:10098000B0FA80F220329046FFF77BFF04460F4614
:1009900040EA0A0041EA0B0153465A46084313D085
:1009A000114653EA010019D0C8F140025046FFF742
:1009B00077FF05460E46504659464246FFF761FF0F
:1009C000084305D0012004E020463946BDE8F08DFB
:1009D0000020054346EAE0762C4337430A98630536
:1009E000E40AA0EB08000022FD0A44EA47540A305A
:1009F00002D500200146E9E7010510196941DDE94A
:100A0000084500196941BDE8F04DA2E770B521F035
:100A1000004303430CD0C1F30A550024D5EB040571
:100A200064EB0403D617AD1AB34102DB0020014684
:100A300070BD201841EB025170BD0000064C074DFF
:100A400006E0E06840F0010394E80700984710349E
:100A5000AC42F6D3FFF74EFBB0720008D07200082C
:100A60002DE9F04D00231A461B1A8A4103DB0020B2
:100A70000146BDE8F08DC1F30A52C1F3130141F400
:100A800080154FF0000BD10702D100186D41521EA6
:100A90000027044640F2FF11384601EB620A3E4649
:100AA0008046024600204FF48011FFF7F9FEC2197C
:100AB0007141BB1846EB0100B4EB030C75EB000C65
:100AC00004D3E41A65EB000517460E46241908F115
:100AD00001006D4180463428E3DDF91946EB06003C
:100AE000091BA84103D24FF0FF32134601E0002258
:100AF00013461BEB070046EB0A51BDE8F04DFFF72C
:100B000028BF70B58C1810F8015B15F0070301D1F0
:100B100010F8013B2A1106D110F8012B03E010F860
:100B2000016B01F8016B5B1EF9D12B0705D4002383
:100B3000521E0DD401F8013BFAE710F8013BCB1A25
:100B4000921C03E013F8015B01F8015B521EF9D51A
:100B5000A142D8D3002070BD70B504460D460DE00B
:100B60002178084802F0C2F8641C681EC5B200BFB4
:100B70008021044802F040F80028F9D0002DEFDC75
:100B800070BD0000004800402DE9F84F06460F46B2
:100B900090469946DDF828B00024A246AA222146B4
:100BA000641C574842542146641C42540222214688
:100BB000641C425400222146641C425400969DF855
:100BC00001202146641C42549DF800202146641CEB
:100BD000425400979DF801202146641C42549DF820
:100BE00000202046611CCCB245490A54CDF8008053
:100BF0009DF801202046611CCCB241490A549DF861
:100C000000202046611CCCB23D490A54CDF800902A
:100C10009DF801202046611CCCB239490A549DF848
:100C200000202046611CCCB235490A54CDF800B0F2
:100C30009DF801202046611CCCB231490A549DF830
:100C400000202046611CCCB22D490A540B9800901C
:100C50009DF801202046611CCCB229490A549DF818
:100C600000202046611CCCB225490A540C98009003
:100C70009DF801202046611CCCB221490A549DF800
:100C800000202046611CCCB21D490A540D980090EA
:100C90009DF801202046611CCCB219490A549DF8E8
:100CA00000202046611CCCB215490A540E980090D1
:100CB0009DF801202046611CCCB211490A549DF8D0
:100CC00000202046611CCCB20D490A54201FC87078
:100CD000002506E00A48405D504400F0FF0A681C09
:100CE000C5B2A542F6DB2046611CCCB2044901F82E
:100CF00000A021460248FFF72FFFBDE8F88F000053
:100D0000610100202DE9FE4F82460E4617469846A7
:100D1000DDF830B00024CDF80480A146AA22214697
:100D2000641C484842542146641C42540122214616
:100D3000641C425400222146641C425442495046DD
:100D4000FFF798FA0090FFF7ACFC00B202909DF814
:100D500009202146641C3B4842549DF80820214646
:100D6000641C425438493046FFF784FA0090FFF77C
:100D700098FC00B202909DF809202146641C31487D
:100D800042549DF808202146601CC4B22D484254AC
:100D90002D493846FFF76EFA0090FFF782FC00B24B
:100DA00002909DF809202046611CCCB225490A54C6
:100DB0009DF808202046611CCCB222490A549DF8B7
:100DC00007202046611CCCB21E490A549DF806201B
:100DD0002046611CCCB21B490A549DF805202046D0
:100DE000611CCCB217490A549DF804202146601CAE
:100DF000C4B2144842542046611CCCB2114901F8D7
:100E000000B02146621CD4B20E4A0D985054201FE7
:100E10001146C870002506E00A48405D484400F0CD
:100E2000FF09681CC5B2A542F6DB2046611CCCB2A6
:100E3000044901F8009021460248FFF78DFEBDE805
:100E4000FE8F0000610100200000C84230B587B06D
:100E500042F2107442F228350121084601F04CF8A4
:100E60000020ADF8160041F61F40ADF8100000203C
:100E7000ADF81200ADF8144004A9A00601F01CFE64
:100E80006020ADF800000020ADF808000120ADF8AA
:100E90000200ADF806506946800701F0A9FC012167
:100EA000880701F05DFC0821C80601F0EDFC012176
:100EB000880701F067FC0121880701F05DFC012231
:100EC0001146900701F08AFC1C2001218140420953
:100ED000920002F1E022C2F8001100BF07B030BD5D
:100EE0000EB50121052001F017F84FF40040ADF8D0
:100EF000080028208DF80B0002A9114800F054F9D1
:100F00004FF40040009001208DF8060000208DF87D
:100F1000040008208DF80500684600F0DBF80F217A
:100F2000002000F021F9282000F01F02012191404B
:100F30004209920002F1E022C2F8001100BF0EBD8A
:100F4000000801401B48007800F00100B8B90020FB
:100F5000194908601949086019480068194908606A
:100F60000020194908801949088019490880194941
:100F700008601949086001201849488070471748DF
:100F80004088642813DC00200B4908600B49086086
:100F90000B4800680B49086000200B4908800B498A
:100FA00008800B4908800B4908600B49086000BFA6
:100FB000E4E70000150000203C000020380000207D
:100FC00004010020280000204000002042000020F2
:100FD0004C000020480000204400002016000020A3
:100FE00010B508498988C1F10F00FFF73BFB06499E
:100FF00008600449C988A1F10F00FFF733FB0349DA
:10100000086010BD160000202000002024000020F1
:1010100010B51C48006840F010001A49086007200D
:1010200001F012F9184908700846007800F0200015
:1010300010B100F0EBFF21E01348007800F0400011
:1010400080B100F0A1FE1148007800F0010020B14D
:101050004FF4807000F0F0FB10E04FF4807000F06F
:101060003BFC0BE00848007800F0100030B100F0C5
:10107000CDFF05480178272001F02AF9012000F072
:1010800023F810BD140801401200002015000020B4
:1010900010B503F08DFF00F017F9FFF7A1FF00F086
:1010A000F5FE00F037FA00F0CBFFFFF74BFF01F041
:1010B000F5F94FF4004000F001F810BD0149086057
:1010C00070470000140401400149086070470000A7
:1010D00014040140002123498279002A3AD00A46AB
:1010E000126803689A430B461A600A1D1268036867
:1010F0009A430B1D1A60027911440A6803681A4367
:101100000A60184A0832126803689A43154B08337C
:101110001A601A1D126803689A43124B0C331A6046
:101120004279102A0ED11A1F126803681A430D4B18
:1011300008331A601A1D126803681A43094B0C33EE
:101140001A600DE00749427911440A6803681A439E
:101150000A6005E0027911440A6803689A430A604C
:10116000704700000004014030B500228B071C0FBF
:101170000F2303FA04F20B4B8C1053F824309343E3
:10118000084C8D1044F8253023468C1053F8243039
:101190008C07240F00FA04F42343024C8D1044F80A
:1011A000253030BD080001402DE9F0410246002500
:1011B0000026002000230024002791F803C00CF033
:1011C0000F0591F803C00CF0100CBCF1000F03D018
:1011D00091F802C04CEA050591F800C0BCF1000F7F
:1011E00031D0146800202BE04FF0010C0CFA00F312
:1011F000B1F800C00CEA03069E4220D183004FF0F4
:101200000F0C0CFA03F7BC4305FA03FC4CEA040488
:1012100091F803C0BCF1280F06D14FF0010C0CFA75
:1012200000FCC2F814C00AE091F803C0BCF1480FFA
:1012300005D14FF0010C0CFA00FCC2F810C0401CA4
:101240000828D1D31460B1F800C0BCF1FF0F34DD21
:10125000546800202EE000F1080C4FF0010808FA55
:101260000CF3B1F800C00CEA03069E4221D18300C2
:101270004FF00F0C0CFA03F7BC4305FA03FC4CEAE1
:10128000040491F803C0BCF1280F05D100F1080C4B
:1012900008FA0CF8C2F8148091F803C0BCF1480FAA
:1012A00007D100F1080C4FF0010808FA0CF8C2F859
:1012B0001080401C0828CED35460BDE8F081416105
:1012C00070470161704700002DE9F04102F092FD86
:1012D0001049B1F90000FFF7D3F906460E4A0F4B4B
:1012E000FFF7DFF80446FFF709FA00B20C4908805F
:1012F0000849B1F90200FFF7C3F90646064A074B51
:10130000FFF7CFF80446FFF7F9F900B20549088066
:10131000BDE8F081EC0000201F401F401F409F3FB0
:101320002C0000202E00002010B50F48006840F06F
:1013300040000D490860012002F0C8FB0A48083847
:10134000006800F0800008B1002400E00124064895
:10135000001D006840F040000349091D086001209D
:1013600002F0B4FB204610BD100C014008B501216D
:10137000082000F0D1FDC020ADF8000014208DF849
:10138000030003208DF8020069460D48FFF70CFFAB
:101390000B481430006840F04000094914310860DF
:1013A000012002F093FB06481030006840F08000F6
:1013B000034910310860012002F088FB08BD0000DD
:1013C000000C014010B504461F48006840F0400082
:1013D0001D490860012002F079FB012C09D11A484F
:1013E000006840F0800018490860012002F06EFBA0
:1013F0000AE01548001F006840F080001249091FEC
:101400000860012002F062FB0F48001F006840F0F6
:1014100040000D49091F0860022002F057FB0A48EE
:10142000006840F0400008490860012002F04EFBCF
:101430000548001F006840F080000349091F08604C
:10144000012002F043FB10BD140C014010B501F067
:1014500099FC1948006840F04000174908600120D5
:1014600002F034FB1448001F006840F0800012496D
:10147000091F0860012002F029FB0F48001F0068C7
:1014800040F040000C49091F0860012002F01EFBDB
:101490000948006840F0800007490860012002F018
:1014A00015FB0548006840F0400003490860012032
:1014B00002F00CFB10BD0000140C014010B51448E4
:1014C000006840F0400012490860012002F0FEFA76
:1014D0000F48006840F080000D490860012002F0CC
:1014E000F5FA0B48001F006840F040000849091F4A
:1014F0000860012002F0EAFA0548001F006840F089
:1015000080000349091F0860012002F0DFFA10BDC6
:10151000140C01402DE9F0477748B0F90000FFF7BF
:10152000A1F80446754801682046FEF7A0FE7449FC
:1015300008607448B0F90000FFF794F80446724858
:1015400001682046FEF793FE704908606C49086800
:10155000FFF7F3F8044600226D4BFFF719F909D99C
:1015600067490868FFF7E9F804460022694BFFF76E
:10157000F7F803D80020684908700AE0012066499E
:1015800008705F48016865480068FEF71BFE634904
:101590000860634961480068FFF738F902D2604883
:1015A0005E4908605F495D480068FFF725F902D28F
:1015B0005C485A490860524A51681068FEF754FE68
:1015C0000746594801683846FEF754FE054652481A
:1015D0000078FFF750F88246544801685046FEF7FD
:1015E00049FE80464D4801684046FEF743FE0746E7
:1015F000434801684E480068FEF73CFE8146394684
:10160000FEF7E0FD06462946FEF7DCFD0446FFF73F
:1016100048F800B2474908803C490868FFF78DF850
:10162000044600223A4BFFF7B3F809D93749086856
:10163000FFF783F804460022354BFFF791F803D8F3
:1016400000203D4908700AE001203B4908702F48FE
:1016500001683A480068FEF7B5FD3849086030492E
:1016600036480068FFF7D2F802D22D4833490860A7
:101670002C4932480068FFF7BFF802D229482F49A9
:101680000860224A51681068FEF7EEFD07462C48B4
:1016900001683846FEF7EEFD054627480078FEF75C
:1016A000EAFF8246274801685046FEF7E3FD804680
:1016B000224801684046FEF7DDFD074613480168F1
:1016C00021480068FEF7D6FD81463946FEF77AFDCF
:1016D00006462946FEF776FD0446FEF7E2FF00B215
:1016E0001A490880064800680549486007480068AC
:1016F00006494860BDE8F0872E0000203C0000202D
:10170000800000202C0000203800002078000020FD
:1017100000C0624000C062C0880000204400002079
:1017200000007A4400007AC4740000207000002099
:101730006C000020420000208900002048000020AA
:1017400068000020640000206000002040000020AD
:1017500008B50121182000F0DFFB10208DF80300F0
:1017600003208DF802004FF46040ADF80000694698
:101770000748FFF719FD4FF47340ADF800006946C4
:101780000448FFF711FD40F2FF1000F005F808BD16
:1017900000100140000C014010B5044604F00100A7
:1017A00020B14FF400512248FFF78BFD04F00200F6
:1017B00020B14FF480411E48FFF783FD04F0040080
:1017C00020B14FF400411A48FFF77BFD04F00800F8
:1017D00020B14FF400411748FFF773FD04F01000EB
:1017E00020B14FF480411348FFF76BFD04F0200057
:1017F00020B14FF400510F48FFF763FD04F04000A3
:1018000020B14FF400710B48FFF75BFD04F080003E
:1018100020B14FF480710748FFF753FD04F4807046
:1018200020B14FF480510348FFF74BFD10BD00007D
:1018300000100140000C014010B5044604F0010006
:1018400020B14FF400512248FFF739FD04F00200A7
:1018500020B14FF480411E48FFF731FD04F0040031
:1018600020B14FF400411A48FFF729FD04F00800A9
:1018700020B14FF400411748FFF721FD04F010009C
:1018800020B14FF480411348FFF719FD04F0200008
:1018900020B14FF400510F48FFF711FD04F0400054
:1018A00020B14FF400710B48FFF709FD04F08000F0
:1018B00020B14FF480710748FFF701FD04F48070F8
:1018C00020B14FF480510348FFF7F9FC10BD000030
:1018D00000100140000C014000F0010129B127492E
:1018E000C96881F40051254AD16000F0020129B194
:1018F0002249C96881F48041204AD16000F0040186
:1019000029B11E49C96881F400411C4AD16000F028
:10191000080129B11A49096881F40041184A116087
:1019200000F0100129B11649096881F48041144A78
:10193000116000F0200129B11149096881F40051BA
:101940000F4A116000F0400129B10D49096881F486
:1019500000710B4A116000F0800129B10849096843
:1019600081F48071064A116000F4807129B1044944
:10197000096881F48051024A1160704700100140EB
:101980000C0C014010B504462146024801F08BF8CA
:1019900010BD0000002C014010B50446214602484D
:1019A00001F083F810BD0000002C014010B5044682
:1019B0002146024801F07BF810BD0000002C0140D8
:1019C00010B504462146024801F073F810BD00002E
:1019D000002C014000B589B00121042000F09CFAE0
:1019E0004FF47060ADF8200018208DF8230003201C
:1019F0008DF8220008A93048FFF7D6FB0121C80264
:101A000000F08AFA0020ADF81A00ADF816002B4855
:101A1000006842F21071B0FBF1F080B2ADF818002E
:101A20000020ADF814008DF81C0005A9244801F031
:101A300043F86020ADF804000020ADF81000ADF8C8
:101A40000C00ADF81200ADF80E000120ADF8060054
:101A50000020ADF80800ADF80A0001A9184800F010
:101A6000C7FE01A9164800F019FF01A9144800F0AB
:101A700075FF01A9124800F0CBFF0121104800F0CA
:101A80006FFE00210E4800F0FFFE00210C4800F020
:101A900057FF00210A4800F0B1FF0021084800F07C
:101AA000F5FF0121064800F06DFE0121044800F019
:101AB00075FE09B000BD0000000801401C010020B7
:101AC000002C014070B50646002400251FE0134895
:101AD000006840F0400011490860012001F0F6FF65
:101AE0006006040E0D480838006800F0800008B158
:101AF00044F001040948001D006840F04000074917
:101B0000091D0860022001F0E1FF681CC5B2082D24
:101B1000DDDB3046FFF756FC204670BD100C01405F
:101B200070B5044600252CE02248006840F04000D3
:101B300020490860012001F0C9FF04F0800040B195
:101B40001C48001F006840F080001A49091F086007
:101B500005E01848006840F08000164908606006FB
:101B6000040E012001F0B2FF1248001F006840F08F
:101B700040001049091F0860022001F0A7FF681CFF
:101B8000C5B2082DD0DB0B48006840F04000094981
:101B90000860012001F09AFF0648001F006840F02D
:101BA00080000449091F0860012001F08FFFFFF742
:101BB000BBFB70BD140C01402DE9F0410646884680
:101BC00014461D46FFF742FC002141EA4601C8B217
:101BD000FFF7A6FF0746012F26D14046FFF7A0FFDB
:101BE0000746012F20D1FFF731FC012101EB46010F
:101BF000C8B2FFF795FF0746012F15D10DE0012C64
:101C000004D10020FFF75EFF287003E00120FFF7FA
:101C100059FF2870601EC4B26D1C002CEFD1FFF775
:101C20004DFC0020BDE8F081FFF748FC0120F9E7FA
:101C30002DE9F04706460F4690469946FFF706FC09
:101C4000002141EA4601C8B2FFF76AFF0546012DAF
:101C50001AD13846FFF764FF0546012D14D1002440
:101C60000CE019F80400FFF75BFF054625B9FFF704
:101C700025FC0120BDE8F087601CC4B24445F0DBC0
:101C8000FFF71CFC0020F5E7FFF718FC0120F1E747
:101C90000EB500F019FA01210D2000F03DF91020D9
:101CA000ADF808008DF80B0003208DF80A0002A99A
:101CB0003148FFF779FA0120ADF8080048208DF887
:101CC0000B0002A92D48FFF76FFA012000908DF854
:101CD000060000208DF804000C208DF805006846F1
:101CE000FFF7F8F900210120FFF73EFA0620012155
:101CF00081404209920002F1E022C2F8001100BFC7
:101D00001D481430006840F010001B491431086071
:101D10000321232000F0DCFA05221949302000F0CD
:101D2000AFFA052217492A2000F0AAFA1A21242026
:101D300000F0CEFA0121212000F0CAFA0121222070
:101D400000F0C6FA0721262000F0C2FA1E21252045
:101D500000F0BEFA0C21312000F0BAFA0F21202049
:101D600000F0B6FA04481030006840F01000024954
:101D7000103108600EBD000000080140000C014059
:101D8000080000200D00002010B50D48006840F04C
:101D900010000B4908600C220A49612000F02CFA5F
:101DA00009480178272000F093FA00F0A3FF0448C7
:101DB000001F006840F010000149091F086010BDB5
:101DC000140801403801002012000020F0B503463D
:101DD0000C4603F00701C1F10700042801D90420D3
:101DE00001E0C1F107000646081D072801D20020C6
:101DF00000E0C81E05460120B040401E2040A8401B
:101E00000127AF407F1E17403843F0BD10B50022B8
:101E100011460520FFF7DAFF044621464FF0FF3058
:101E200000F020F8002201210520FFF7CFFF044633
:101E30002146282000F016F8012211460520FFF760
:101E4000C5FF04462146062000F00CF800220121BF
:101E50000520FFF7BBFF044621461C2000F002F8D6
:101E600010BD000010B5002807DA0A07140E054A55
:101E700000F00F031B1FD45403E00A07130E024A9D
:101E8000135410BD18ED00E000E400E010B5104858
:101E9000016810480068FEF7E7F90F4908600F482D
:101EA00001680F480068FEF7DFF90E4908600A482C
:101EB00001680D480068FEF7DDF90C490860094823
:101EC00001680B480068FEF7D5F90A49086010BDA3
:101ED000FC0000202000002058000020000100200D
:101EE000240000205C000020540000203C00002062
:101EF000500000203800002029B1064AD269024370
:101F0000044BDA6104E0034AD2698243014BDA618F
:101F1000704700000010024029B1064A926902434E
:101F2000044B9A6104E0034A92698243014B9A612F
:101F3000704700000010024030B50021002200244C
:101F400000232D4D6D6805F00C0121B1042905D049
:101F5000082923D105E0294D056022E0274D0560C1
:101F60001FE0254D6D6805F47012234D6D6805F472
:101F70008034022505EB92421CB9214D5543056082
:101F80000BE01D4D6D6805F400351DB11C4D55432A
:101F9000056002E0194D5543056002E0174D0560EC
:101FA00000BF00BF144D6D6805F0F0010909154D23
:101FB0006B5C0568DD4045600F4D6D6805F4E061C0
:101FC000090A104D6B5C4568DD4085600A4D6D68FF
:101FD00005F46051C90A0B4D6B5C4568DD40C56076
:101FE000054D6D6805F44041890B074D6B5CC56874
:101FF000B5FBF3F5056130BD0010024000127A0018
:1020000000093D00080100201801002010B50B4810
:10201000006840F01000094908600F21202000F0FE
:1020200057F97E21272000F053F90448001F00686B
:1020300040F010000149091F086010BD140801405C
:102040002DE9F0411448016814480068FEF70CF9C6
:10205000134908600A4651681068FEF705F90746FB
:10206000104801683846FEF705F905460C48016836
:102070000D480068FEF7FEF806462946FEF7A2F86E
:102080000446FEF70EFB00B20849088004480068C9
:1020900003494860BDE8F0810401002028000020C9
:1020A00094000020900000208C0000204C000020B4
:1020B00021B1028842F04002028004E002884FF61B
:1020C000BF731A400280704700B587B001210C2011
:1020D000FFF722FF03208DF80600E020ADF8040092
:1020E00018208DF8070001A91C48FFF75DF80220B1
:1020F000ADF8040010208DF8070003208DF80600CD
:1021000001A91748FFF750F801210803FFF704FF62
:102110000020ADF808004FF48270ADF80A000020EE
:10212000ADF80C00ADF80E00ADF810004FF40070E3
:10213000ADF812000820ADF814000020ADF816002C
:102140000720ADF8180002A9064800F01BF801218D
:102150000448FFF7ADFF07B000BD000000080140D4
:10216000000C0140003001400246002013890B4062
:102170000BB1012000E000207047014688897047BC
:102180008181704710B50022028802F441520B8809
:102190004C8823438C882343CC8823430C892343D6
:1021A0004C8923438C892343CC8923431A430280DF
:1021B000838B4FF2FF74234083830B8A038210BD0D
:1021C00010B5044600BF02210A48FFF7CDFF0028E2
:1021D000F9D021460748FFF7D3FF00BF012105488A
:1021E000FFF7C2FF0028F9D00248FFF7C6FFC0B2D0
:1021F00010BD00000030014070B506460C46154683
:102200000F48006840F002000D4908603046FFF7B3
:10221000D7FF0C49087006E00020FFF7D1FF2070BF
:10222000641C681EC5B2002DF6D10548001F006869
:1022300040F002000249091F08600248007870BDA2
:10224000140C01400700002070B504460B480068DC
:1022500040F00200094908602046FFF7B1FF002066
:10226000FFF7AEFF05460548001F006840F002007A
:102270000249091F0860284670BD0000140C014087
:1022800070B506460C4615460F48006840F002003F
:102290000D4908603046FFF793FF0C49087005E0D0
:1022A0002078FFF78DFF641C681EC5B2002DF7D1A2
:1022B0000548001F006840F002000349091F08603C
:1022C0000248007870BD0000140C01400700002097
:1022D00070B505460C460C48006840F002000A49FB
:1022E00008602846FFF76CFF084908702046FFF792
:1022F00067FF0548001F006840F002000249091FFF
:1023000008600248007870BD140C014007000020EE
:10231000012080F3138800BF00BF00BF00BF00BFD3
:1023200000BFBFF34F8F00BF00BF00BF0948006868
:1023300000F4E06008490843001D0649086000BF3A
:1023400000BF00BFBFF34F8F00BF00BF00BF00BF83
:1023500000BFFDE70CED00E00000FA0501280BD1FD
:10236000134A928842F00202114B9A801A469288D0
:1023700042F001029A800AE00D4A928822F002029D
:102380000B4B9A801A46928822F001029A8001290A
:1023900006D1074A928842F00402054B9A8005E074
:1023A000034A928822F00402014B9A807047000091
:1023B0009401002010B500F001F810BD0CB500200C
:1023C000019000903348006840F480303149086043
:1023D00000BF3048006800F4003000900198401CB5
:1023E0000190009818B90198B0F5A06FF1D1294873
:1023F000006800F4003010B10120009001E00020DE
:1024000000900098012843D12348006840F0100054
:10241000214908600846006820F00300086008466B
:10242000006840F0020008601A4840681949486096
:102430000846406848600846406840F4806048604C
:102440000846406820F47C1048600846406840F424
:10245000E81048600846006840F08070086000BFDF
:102460000C48006800F000700028F9D00948406866
:1024700020F00300074948600846406840F0020029
:10248000486000BF0348406800F00C000828F9D1FC
:102490000CBD0000001002400020024010B537487B
:1024A000408837490988084436490988401A36491E
:1024B0000988084400B235490880304840883049CE
:1024C000098808442F49098808442F490988401A77
:1024D00000B22E4948802948408829490988401A75
:1024E00028490988084428490988084400B227492E
:1024F00088802248408822490988401A2149098851
:10250000401A21490988401A00B22049C880002495
:102510001CE01E4830F914001D49B1F90010884232
:1025200006DB1B48B0F90000184921F814000BE045
:10253000164830F914001749B1F90010884203DC3D
:102540000120124921F81400601CC4B2042CE0DB05
:102550000E49098888B2FFF715FA0C49498888B2F4
:10256000FFF71AFA0949898888B2FFF71FFA074965
:10257000C98888B2FFF724FA10BD000016000020B9
:1025800040000020420000204C00002030000020CD
:102590009C0000209E0000200448006820B10348F1
:1025A0000068401E014908607047000000000020DC
:1025B000094800680949B0FBF1F0401E4FF0E021E6
:1025C000486100208861062008610846006920F003
:1025D00001000861704700001C01002040420F000C
:1025E00010B51348006840F0010011490860084622
:1025F0004068104908400E494860084600680E4986
:1026000008400B4908600846006820F480200860F4
:102610000846406820F4FE0048604FF41F008860C0
:10262000FFF7C8FE4FF000600449086010BD0000CD
:10263000001002400000FFF8FFFFF6FE08ED00E08A
:1026400070B50121880700F0B8F801282DD117488E
:1026500000781749097888421FD116494988A1F2A4
:10266000E240FEF70DF804460022134BFEF790F807
:1026700006D810484088A0F548700E49488003E00D
:1026800040F2E2400B4948800F200A498880C88008
:102690004FF48070FFF780F803E0054800780349A5
:1026A00008700121880700F06AF870BD1E00002044
:1026B00014000020160000200000894010B50221FF
:1026C000244800F07AF8012808D140F2FF10FFF703
:1026D000B3F802211F4800F052F83AE001211D48EA
:1026E00000F06BF8012834D140F2FF10FFF754F8E6
:1026F000194800880A2806DA0A20174908800020AD
:10270000164908700BE01448008842F206718842AE
:1027100005DD0846104908800120104908700F485F
:10272000007848B90C4801880088401C0A4B188082
:10273000084800F0B8F908E0074801880088401E02
:10274000054B1880034800F0AEF90121014800F064
:1027500016F810BD00040040040000200600002010
:1027600021B1028842F08002028004E002884FF624
:102770007F731A4002807047CA4302827047CA437F
:102780000282704721B1028842F00102028004E017
:1027900002884FF6FE731A400280704731B1B0F8DC
:1027A000442042F40042A0F8442005E0B0F8442060
:1027B000C2F30E02A0F84420704730B50246002054
:1027C00000230024158A05EA0103958905EA01041E
:1027D00013B10CB1012000E0002030BD1AB1838993
:1027E0000B43838102E083898B4383817047000020
:1027F00070B5002400220023058C4FF6FE7635408C
:102800000584028C8388048B4FF68F752C40B51E8F
:102810002C400D882C43751E2A400D892A434D8873
:102820002A43144DA8420BD0134DA84208D0134D93
:10283000A84205D0124DA84202D0124DA84213D191
:102840004FF6F7752A404D892A434FF6FB752A400B
:102850008D882A434FF6FF652B404FF6FF552B40DE
:102860008D892B43CD892B4383800483CD88858636
:10287000028470BD002C0140003401400040014042
:1028800000440140004801400A460021018B4FF6F8
:10289000F7731940114301837047000070B500249D
:1028A00000220023058C4FF6EF7635400584028C1C
:1028B0008388048B48F6FF752C404FF6FF452C406B
:1028C0000D884FF6FF7606EA05252C434FF6DF7597
:1028D0002A400D8906EA05152A434D8806EA0515A2
:1028E0002A43154DA84202D0144DA8421DD14FF6DF
:1028F0007F752A404D894FF6FF7606EA05152A4373
:102900004FF6BF752A408D8806EA05152A434FF613
:10291000FF352B404FF2FF752B408D8906EA850568
:102920002B43CD8906EA85052B4383800483CD881C
:102930000587028470BD0000002C01400034014076
:102940000A460021018B4FF2FF7319404FF6FF73C7
:1029500003EA0223194301837047000070B5002485
:1029600000220023058C4FF6FF6635400584028C5B
:102970008388848B4FF68F752C404FF6FC752C4066
:102980000D882C434FF6FF552A400D894FF6FF76F0
:1029900006EA05252A434D8806EA05252A43154DF2
:1029A000A84202D0144DA8421DD14FF2FF752A4013
:1029B0004D894FF6FF7606EA05252A434FF6FF3587
:1029C0002A408D8806EA05252A434EF6FF752B40DE
:1029D0004DF6FF752B408D8906EA05152B43CD89F1
:1029E00006EA05152B4383808483CD88858702847E
:1029F00070BD0000002C0140003401400A46002157
:102A0000818B4FF6F77319401143818370470000A3
:102A100070B5002200230024058C4EF6FF76354069
:102A20000584038C8488828B48F6FF752A404FF614
:102A3000FF452A400D884FF6FF7606EA05252A4312
:102A40004DF6FF752B400D8906EA05352B434D8861
:102A500006EA05352B430B4DA84202D00A4DA84289
:102A600008D14BF6FF752C408D894FF6FF7606EAAC
:102A700085152C4384808283CD88A0F84050038440
:102A800070BD0000002C0140003401400A460021C6
:102A9000818B4FF2FF7319404FF6FF7303EA022355
:102AA000194381837047818670470187704781870A
:102AB0007047A0F840107047002202881D4B9842D2
:102AC0000ED01D4B98420BD0B0F1804F08D01B4B5D
:102AD000984205D01A4B984202D01A4B984204D122
:102AE0004FF68F731A404B881A43174B984207D002
:102AF000164B984204D04FF6FF431A40CB881A4336
:102B000002808B8883850B8803850A4B98420BD003
:102B1000094B984208D00E4B984205D00D4B984275
:102B200002D00D4B984201D10B7A03860123838298
:102B300070470000002C01400034014000040040B8
:102B400000080040000C004000100040001400404D
:102B500000400140004401400048014021B1828909
:102B600042F40052828104E082894DF6FF731A40DC
:102B70008281704700B585B001210820FFF7CCF9AC
:102B800001218804FFF7B8F94FF48060ADF8100018
:102B900018208DF8130003208DF8120004A91448A2
:102BA000FEF702FB4FF40060ADF8100004208DF832
:102BB000130004A90E48FEF7F7FA4FF4E130009035
:102BC0000020ADF80C000C20ADF80A000020ADF894
:102BD0000800ADF80600ADF804006946054800F0AD
:102BE00019F801210348FFF7B9FF05B000BD000047
:102BF000000C01400048004002460020B1F5007F73
:102C000000D100BF13880B400BB1012000E0002071
:102C1000704700002DE9F04786B005460E460024B7
:102C2000A24600BFA1460027B08900B100BF2F46D1
:102C30002C8A4CF6FF700440F08804432C82AC8947
:102C40004EF6F3100440B088318908437189084377
:102C50000443AC81AC8A4FF6FF400440B089044382
:102C6000AC8201A8FFF768F91F48874202D1DDF85E
:102C700010A001E0DDF80CA0A88900F4004040B1EC
:102C80000AEBCA0000EB0A1031684900B0FBF1F80A
:102C900007E00AEBCA0000EB0A1031688900B0FBBC
:102CA000F1F86420B8FBF0F004012009642101FB75
:102CB0001089A88900F4004040B1322000EBC9001F
:102CC000B0FBF1F000F00700044308E0322000EB15
:102CD00009106421B0FBF1F000F00F0004432C81D7
:102CE00006B0BDE8F087000000380140C1F30802DB
:102CF0008280704710B51B48C07AA52800D010BD4F
:102D00001848007800F00100E8B11648007915492C
:102D1000497940EA012014494880124880791149D4
:102D2000C97940EA0120104988800E48007A0D498F
:102D3000497A40EA01200C49C880084641880BA026
:102D400000F040F808E00748007800F0080018B1EB
:102D500004484078094908700248807A0849087098
:102D600000BFCCE73801002016000020796F756D98
:102D7000656E3A3A3A25640D0A00000015000020FD
:102D80001400002010B513E00D48006840F040002A
:102D90000B490860032000F099FE0948001F0068F5
:102DA00040F040000649091F0860032000F08EFE35
:102DB00003480C38006800F080000028E4D010BD03
:102DC000140C01400FB4054B10B503A9044A029836
:102DD00000F09AF810BC5DF814FB0000654A00088A
:102DE00030010020490050EAC12018BF04204A0DDC
:102DF00018BF40F0010040F2FF72B2EB515F08BF14
:102E000040F00200012808BF052070472DE9F0417D
:102E10004F1E00EBC7010446D1E9000115461E46CE
:102E200037F006020DD02A463346FDF73AFB7F1EE7
:102E300004EBC703D3E90023FDF78CFA37F0060251
:102E4000F1D1022F25D0042F13D0062F18BFBDE8D3
:102E5000F0812A463346FDF724FBD4E90A23FDF727
:102E600079FA2A463346FDF71CFBD4E90823FDF71F
:102E700071FA2A463346FDF714FBD4E90623FDF721
:102E800069FA2A463346FDF70CFBD4E90423FDF723
:102E900061FA2A463346FDF704FBD4E90223FDF725
:102EA00059FA2A463346FDF7FCFAD4E90023BDE877
:102EB000F041FDF74FBA0122FDF7A8BDFDF74ABA70
:102EC0000022134610461146FDF75DBB024A002062
:102ED0001107FDF79BBD000001FDFFFF02E008C8E0
:102EE000121F08C1002AFAD170477047002001E084
:102EF00001C1121F002AFBD1704700000149086080
:102F000070470000340100202DE9FF4F8DB00F46BF
:102F10000546002606E025280BD0DDE90F12904774
:102F20006D1C761C28780028F5D111B03046BDE81C
:102F3000F08F0024A246A1460122EC4900E00443A0
:102F400015F8013F203B02FA03F00842F7D1287838
:102F50002A2810D06FF02F022878A0F1300109291B
:102F600014D80AEB8A0102EB410144F0020400EBA1
:102F7000010A6D1CF0E701CF5FEA000A03D544F4B3
:102F80000054CAF1000A44F002046D1C28782E286F
:102F900017D115F8010F44F004042A280ED06FF061
:102FA0002F022878A0F1300109290AD809EB8901FC
:102FB00002EB410100EB01096D1CF2E757F8049B9D
:102FC0006D1C28786C280FD006DC4C2817D0682898
:102FD0000DD06A2814D104E0742810D07A280FD1BB
:102FE0000DE044F400140AE044F4801401E044F4D9
:102FF00040146978814202D104F580146D1C6D1C67
:103000002A786E2A1FD00CDC632A31D004DC002A17
:103010008BD0582A11D1A3E0642A68D0692A0CD138
:1030200065E0732A2ED004DC6F2A73D0702A04D195
:103030009BE0752A6FD0782A6ED01046DDE90F121A
:103040009047761C50E1C4F30250022806D00328B2
:1030500009D0042801CF09D0066045E101CFF1175E
:10306000C0E9006140E101CF06803DE106703BE12F
:1030700017F8040B8DF8000000208DF80100EB46D6
:10308000012003E057F804BB4FF0FF3061074FF019
:10309000000102D40DE008F10101884649450FDA2C
:1030A0008045F8DB1BF808100029F4D108E008F18E
:1030B000010188468142FADB1BF808100029F6D18D
:1030C000DDE90F23AAEB08008146214600F036F91E
:1030D000304400EB080604E0DDE90F121BF8010B99
:1030E0009047B8F10108F7D221464846F7E00A2197
:1030F000C4F302534FF0000B0891022B04D001CF10
:10310000C117032B09D00AE0FF1D27F00707F7E8D6
:10311000020108E032E01FE020E000B2C117042BFA
:1031200001D140B2C117031E71F1000307DA4FF05D
:10313000000CD0EB0C006CEB01012D2302E0230509
:1031400004D52B238DF82430012303E0E30701D0BD
:103150002023F7E7984658E00A2110E010210EE0FE
:1031600010204FF0000B08900CE010214FF0000BE6
:1031700044F004044FF00809089103E008214FF0DF
:10318000000B0891C4F30253022B04D001CF00219D
:10319000032B06D006E0FF1D27F00707F7E8020122
:1031A00003E080B2042B00D1C0B24FF00008230727
:1031B0002BD5702A07D0DDF820C08CF0100C5CEA0B
:1031C0000B0C05D00EE040238DF82430012308E0DD
:1031D00050EA010306D030238DF824308DF82520E5
:1031E00002239846DDF820C08CF0080C5CEA0B0C3A
:1031F0000BD150EA010301D1630706D530238DF8C6
:1032000024304FF00108A9F10109582A04D038A24E
:103210000B9208AA0A920BE03AA2F9E75B46089AD9
:10322000FDF7FEFA0B9B9B5C0A9A521E0A921370E2
:1032300050EA0102F2D10A98ADEB000000F1200B38
:10324000600702D524F4803401E04FF00109D9452C
:1032500002DDA9EB0B0000E0002000EB0B01414474
:103260000890AAEB010AE00306D4DDE90F2321460A
:10327000504600F063F806444FF0000908E009A941
:1032800011F80900DDE90F12904709F10109761CD8
:10329000C145F4DBE0030CD5DDE90F2321465046A0
:1032A00000F04CF8064404E0DDE90F1230209047AE
:1032B000761C0899481E08900029F5DC08E00A9859
:1032C0000A990078491C0A91DDE90F129047761C93
:1032D000BBF10001ABF1010BF1DC21465046DDE909
:1032E0000F2300F019F806446D1C1BE609280100A5
:1032F000303132333435363738396162636465666C
:10330000000000003031323334353637383941422D
:1033100043444546000000002DE9F04104460025E5
:103320001E461746880404D405E039462020B047DD
:103330006D1C641EF9D52846BDE8F0812DE9F041E9
:10334000044600251E469046C80301D5302700E0FC
:103350002027880404D505E041463846B0476D1C57
:10336000641EF9D52846BDE8F08100002DE9FE4F26
:1033700006460F460025684601F086FB002442E021
:1033800056F8240057F82410A0EB010ABAF1000FF8
:1033900001DB514601E0CAF100010846FDF762F980
:1033A00083464FF08F41FCF797FF80465DF824007D
:1033B0000021FDF721FA16D05DF824104046FCF7F5
:1033C0008BFF82464FF07E51FCF74EFF814629F07D
:1033D000004A0F48416A5046FDF718FA12D2012000
:1033E000A04005430EE00A48C1694046FDF704FAD3
:1033F00005D30748016A4046FDF708FA02D20120CA
:10340000A0400543641C032CBADB2846BDE8FE8FB0
:10341000506500082DE9F04D8D4F21F0004A86B02F
:1034200005460C46BA452ADBAAEB070028430AD01A
:103430008848824501DC1AD1CDB106B02846BDE8E6
:10344000F04DFFF738BD844A844B2846FDF729F834
:1034500007460E46824A834B28462146FDF721F84F
:1034600006B03A463346BDE8F04DFCF773BF012085
:10347000FFF744FD06B0BDE8F04DFFF721BD7A48E7
:10348000824542DABAF1795F0BDA2846FFF7AAFCE7
:10349000042808BFFFF71AFD284606B02146BDE8FC
:1034A000F08D2A460B461046FCF7FBFF834602468A
:1034B0006E480E460B4606217844FFF7A7FC5A4695
:1034C0003346FCF7EEFF804669488A465A46334643
:1034D00004217844FFF79AFC5A463346FCF7E1FF93
:1034E00000223B46FCF736FF02460B46404651465B
:1034F000FDF749F82A462346FCF7D3FF06B02A46D3
:103500002346BDE8F04DFCF725BF284624F00041D6
:1035100000223D463B46FCF7C1FF4FF0FF32FDF76E
:1035200075FA0646024653480F460B460621784474
:10353000FFF76CFC32463B46FCF7B3FFCDE90001D8
:103540004D4832463B4604217844FFF75FFC324643
:103550003B46FCF7A6FF00222B46FCF7FBFE83460A
:1035600002913046394602F0B9FF804643480D4685
:10357000504517DCDDE900015A46029BFDF703F8D0
:1035800042462B46FCF78DFF42462B46FCF7E2FEF7
:103590000122FDF73BFA304A304BFCF77CFF304A02
:1035A000304B4CE04FF0000A52460B464046FCF7C9
:1035B000D1FECDE9031052462B4610461946FCF7C2
:1035C00070FF32463B46FCF769FFDDE90332FCF74A
:1035D000DAFF06460F46DDE900015A46029BFCF77A
:1035E000D2FF83460091012230463946FDF70EFA9C
:1035F000194A1A4BFCF752FF06460F460122404675
:103600002946FDF703FA5A46009BFCF74AFF32466B
:103610003B46FCF740FF06460F460122504629462E
:10362000FDF7F4F90E4DDFF858802A464346FCF7C3
:1036300035FF32463B46FCF731FF2A464346FCF74E
:103640002DFF002CD8BF81F0004106B0BDE8F08D01
:103650000000F03F0000F07F075C143326A6913C89
:10366000182D4454FB21F93F0000E03FB43C00001A
:10367000CA3C00003E3C0000543C00003333EF3FA6
:10368000FB21E93F2DE9F84F04460D4621F00040AB
:1036900000917349814211DC7249884201DC06D1F4
:1036A0002CB120462946BDE8F84FFFF704BC6E4810
:1036B000002DCCBF6D496E49BDE8F88F6D49814240
:1036C00011DD6D498142D8BF4FF0FF366DDD2046D8
:1036D0002946FFF787FB042808BFFFF7F7FB2046C2
:1036E0002946BDE8F88F6549654F25F000458142C0
:1036F00033DD6449814219DD002632464FF08043B4
:1037000020462946FCF726FE80468A4601222046AE
:103710002946FDF77BF900223B46FCF7BCFE4246FA
:103720005346FCF730FF04460D463EE001260022DA
:10373000BA463B4620462946FCF70CFE80460F461B
:103740000022534620462946FCF7A5FE42463B464A
:10375000FCF719FF04460D4627E04B4981421BDD6B
:10376000DFF828A102260022534620462946FCF70E
:1037700098FE00223B46FCF7EDFD80460F460022F6
:10378000534620462946FCF786FE42463B46FCF758
:10379000FAFE04460D4608E0032622462B4600208A
:1037A0003B49FCF7F0FE04460D4622462B461046E8
:1037B0001946FCF776FE8B46824602460B46FCF71E
:1037C00070FE07460246334888460B460621784479
:1037D000FFF71CFB52465B46FCF763FE82462E4811
:1037E0008B463A46434605217844FFF70FFB3A469D
:1037F0004346FCF756FE02460B46002E50465946FD
:103800000CDAFCF7A7FD22462B46FCF74AFE01B076
:1038100022462B46BDE8F04FFCF740BEFCF79AFD70
:1038200022462B46FCF73DFE1C4A7A4402EBC603B7
:10383000D3E90023FCF72FFE22462B46FCF72BFE94
:10384000174A7A4402EBC603D3E90023FCF726FEAD
:10385000009A002AB8BF81F00041BDE8F88F00004F
:10386000000010440000F07F182D4454FB21F93F64
:10387000FB21F9BF0000DC3F0000203E0000F33FC9
:103880000000F03F0000E63F008003400000F83FEA
:103890000000F0BF563A0000143A0000B2390000B0
:1038A0007A3900002DE9F04D9446CCF1000423F064
:1038B00000464CEA0404524F46EAD4749A468846BD
:1038C00021F00042BC4206D8454240EA050442EAE3
:1038D000D474BC4204D9BDE8F04D6246FFF7EEBA9D
:1038E000AAF14055A5F17F6555EA0C040BD00224DE
:1038F00004EAAA74434DDFF810E144EAD87452EAAE
:10390000000B04D00CE0BDE8F04DFFF7BBBE002C6F
:1039100014BF012CBDE8F08D022C30D0032C32D026
:1039200056EA0C0B0AD0BE4220D1BA4209D126F089
:10393000804622F080423346114617E000291ADB08
:1039400025E0DFF8C8B0FB44002C04BFDBE9000130
:10395000BDE8F08D012C02BFDBE9000181F00041E0
:10396000BDE8F08D022C0AD0032C0CD0BA4212D143
:10397000B8F1000F0BDA23482549BDE8F08D284641
:103980002449BDE8F08D28467146BDE8F08D1D48FC
:103990002149BDE8F08D921B12153C2AC4BF19487D
:1039A0001D490EDCBAF1000FBEBF12F13C0F002022
:1039B000014606DB6246FCF7E6FD21F00041FFF719
:1039C00061FE002C08BFBDE8F08D012C04BF81F022
:1039D0000041BDE8F08D114A114B022C07D0FCF7D5
:1039E0005AFD2A46BDE8F04D0A4BFCF754BDFCF7E2
:1039F00052FD2A46BDE8F04D064BFCF74FBD0000D6
:103A00000000F07F182D4454FB2109C00E3900003E
:103A1000FB21F9BFFB210940FB21F93F075C14336F
:103A200026A6A13C2DE9F0410446E07800F0C0064E
:103A3000E07800F03F05607800F0010098B1EF10E9
:103A40002846E91705EB5171C910A5EBC101491CC6
:103A500001F0FF080B48006820B10A48414602689F
:103A60003846904700BF607800F0080030B1054844
:103A7000406818B1B011034A516888470020BDE87A
:103A8000F08100004401002000B970474FF47A71C2
:103A900041430D4A116000214FF0E022916111462F
:103AA000096941F00101116100BF07490968002956
:103AB000FBD14FF0E021096921F001014FF0E02234
:103AC000116100BFE1E700000000002000B970476D
:103AD0000C49086000214FF0E0229161114609690C
:103AE00041F00101116100BF064909680029FBD1BD
:103AF0004FF0E021096921F001014FF0E02211614E
:103B000000BFE4E70000002038B5044664B120207F
:103B10008DF8000028208DF8010030208DF802007B
:103B200038208DF8030004E0A32204216846FCF746
:103B30002AFB6A46042140F69E2002F0FFFB01F0BA
:103B4000E9FF38BD3EB5044602208DF80000CA20CA
:103B50008DF80100E3208DF8020009208DF80300A4
:103B60006A460421682002F0E9FBA3208DF80000DA
:103B700004F0400048B1C0208DF80100C8208DF845
:103B80000200C2208DF8030006E0A3208DF801009A
:103B90008DF802008DF8030004F4C07048B1C42011
:103BA0008DF80400CC208DF80500C6208DF80600A5
:103BB00006E0A3208DF804008DF805008DF80600BE
:103BC000A3208DF807008DF808008DF809006A46DB
:103BD0000A2140F6A72002F0B1FB04F0030018B15F
:103BE00020208DF8000002E0D8208DF800006A4601
:103BF000012140F6B62002F0A1FB04F0200018B12C
:103C0000012000F0ADF802E0002000F0A9F804F473
:103C1000C07008B304F4807060B1B2208DF8000069
:103C20008B208DF80100B6208DF802009B208DF8C6
:103C300003000BE0B0208DF8000080208DF801001B
:103C4000B4208DF8020090208DF803006A4604210C
:103C500040F6A22002F072FB04F0010020B3F8202D
:103C60008DF800006A4601214FF40B6002F066FBFC
:103C7000FA21072000F000FE072000F0C7FD012018
:103C800000F0E7FD642000F0C7FE4FF4FA7000F08A
:103C9000D6FEC821304800F077FD282000F090FDC6
:103CA0000A2000F0A0FD08E0D8208DF800006A4648
:103CB00001214FF40B6002F041FB04F0020018B147
:103CC000D9208DF8000002E0D8208DF800006A4667
:103CD000012140F23D7002F031FB04F0040018B104
:103CE000012000F069F802E0002000F065F804F01F
:103CF000100018B10120FFF707FF02E00020FFF7D6
:103D000003FF44F008001549488101F003FF00203B
:103D10001249887304F0400018B10846807B801D6A
:103D2000887304F4C07020B10C48807B801D0B495F
:103D3000887304F0140020B10848807B10300749D4
:103D4000887304F0030020B10448807B001D034900
:103D5000887300203EBD000009E3CA024401002030
:103D60003EB504466CB10EA1D1E900208968CDE9C9
:103D7000002002916A4609214FF4976002F0DEFAB2
:103D80003EBD0AA2D2E900109268CDE9010200917D
:103D90006A4609214FF4976002F0D0FAF0E700007C
:103DA000B8AAB38DB4980D355D000000B8AAAAAAD0
:103DB000B088C3C5C700000038B5044664B1C02050
:103DC0008DF80000C2208DF80100C4208DF802009B
:103DD000C6208DF8030004E08B2204216846FCF71E
:103DE000D2F96A46042140F6982002F0A7FA01F0C1
:103DF00091FE38BD2DE9F04F89B0D948C078002830
:103E00007ED0D74840780028FAD0D648D649D74B3C
:103E1000D74ACDE90010D749D74800F0CBF918B1FF
:103E2000012009B0BDE8F08FCE48007810B900201D
:103E3000CB49C870CC48007800F0700038B3C8484F
:103E4000007900F0020010B3C748007800F00800C5
:103E5000E8B1C348007900F00100C0B10020029031
:103E6000039004900590C448B0F90400C249B1F928
:103E70000210C14CCDE90010B4F90030BD4CB4F9CA
:103E80000420B4F90210B4F90000FCF77DFEB64836
:103E9000008800F4807000287ED0B5490868FCF7DF
:103EA000E1FB04464FF09D41FCF716FAB349086068
:103EB000AF494868FCF7D6FB04464FF09D41FCF73C
:103EC0000BFAAF490860AA498868FCF7CBFB0446A7
:103ED0004FF09D41FCF700FAAA490860A449C86860
:103EE000FCF7C0FB04464FF09D41FCF7F5F9A649ED
:103EF0000860A24801684FF08040FCF7BBF900E081
:103F0000E6E007909F4801680798FCF7B3F98246FE
:103F10009B4801684FF04040FCF7ACF907909A4885
:103F200001680798FCF7A6F983465146FCF74AF961
:103F30000890FCF702FC8046FFF76CFA06464FF04B
:103F40006632924BFCF7ADFA0446FCF739FC904917
:103F500008608C4801684FF08040FCF78BF90390B3
:103F6000884801680398FCF785F98246844801680F
:103F70004FF04040FCF77EF90390814801680398B8
:103F8000FCF778F983465146FCF76EF981464FF00D
:103F90007E51FCF717F900E098E00446FCF7CDFBF2
:103FA000CDE90601754801684FF08040FCF762F9E1
:103FB0008346734801685846FCF75CF981467148AE
:103FC00001684FF08040FCF755F983466E48016860
:103FD0005846FCF74FF982464946FCF7F3F8044689
:103FE000FCF7ABFBCDE90401DDE90623FFF75AFC42
:103FF00007464FF06632654BFCF753FA0546FCF76F
:10400000DFFB64490860604801680068FCF732F92A
:1040100005905C4801680068FCF72CF9049058484A
:1040200001680068FCF726F90290544801680068AE
:10403000FCF720F901900299FCF7C4F80390049969
:10404000FCF712F983460599FCF70EF98246FCF756
:1040500074FB804689464C48016848480068FCF774
:1040600009F905904748016845480068FCF702F9DE
:1040700004900599FCF7A6F883464FF08041FCF7C1
:10408000F9F88246FCF759FB42464B46CDE906015A
:10409000FFF708FC06464FF066323C4BFCF701FA8E
:1040A0000446FCF78DFB3C4908602D48007900F080
:1040B000040058B1002000900346019008460268B1
:1040C0003348016833480068FCF71CFE0020A8E66E
:1040D0002348C078F0B307A808AB244A25490090CC
:1040E000254801F07BFB08B101209AE69DF81C00F1
:1040F00010B900201A49C8709DF8200000F0700027
:1041000038B31748007900F0020010B39DF8200082
:1041100000F00800E8B11248007900F00100C0B1D9
:10412000002002900390049005901348B0F9040019
:104130001149B1F90210104CCDE90010B4F900306A
:104140000C4CB4F90420B4F90210B4F90000FCF7E7
:104150001BFD00E001E0002063E600BF012060E6F7
:1041600094010020FA000020F8000020E800002060
:10417000A4010020F2000020EC000020D800002064
:10418000DC000020E0000020E400002066A64C4097
:10419000FC000020000100200401002010B5C8230D
:1041A0004FF48062024940F6F63001F04BFA10BD40
:1041B000786500082DE9F04F8DB007468846154612
:1041C0009946DDE9166B0024002030806B49887B1E
:1041D0005A4605A901F0FEFB18B1601E0DB0BDE8FE
:1041E000F08F6648807A00F01400002867D09DF8B0
:1041F000140000069DF8151040EA01409DF81610C5
:1042000040EA01209DF81710084328609DF8180027
:1042100000069DF8191040EA01409DF81A1040EA86
:1042200001209DF81B10084368609DF81C000006E3
:104230009DF81D1040EA01409DF81E1040EA012043
:104240009DF81F100843A8609DF8200000069DF807
:10425000211040EA01409DF8221040EA01209DF81B
:1042600023100843E86004F11000C4B22868001469
:104270000190686800140290A86800140390E86830
:104280000014049001984043029901FB0100039936
:1042900001FB0100049901FB010ABAF1706F02DB16
:1042A000BAF1885F05DD01F035FC00203080401E4A
:1042B00094E7B6F9000040F48070308000BF2F48CA
:1042C000807A00F0400020B305A9601C085C095DFD
:1042D00040EA012000B2A8F8000005A9E01C095C32
:1042E00005AAA01C105C41EA002000B2A8F8020058
:1042F00005A9601D095C201D105C41EA002000B288
:10430000A8F80400A01DC4B2B6F9000040F00800EF
:1043100030801A48408900F4C07008B305A9601CB9
:10432000085C095D40EA012000B2388005A9E01C64
:10433000095C05AAA01C105C41EA002000B278804C
:1043400005A9601D095C201D105C41EA002000B237
:10435000B880A01DC4B2B6F9000040F070003080F3
:104360000648807A00F0030018B105A90819FFF784
:1043700059FB484600F0E2FB00202FE744010020F3
:1043800070B588B0064601A800F0B0FFBDF8040083
:104390000021C90341EA5045C4034448007A00F0B3
:1043A000030056F8200005904048007A00F0040011
:1043B00010B10598404205903C48007AC0F3C10016
:1043C00056F8200006903948007A00F0200010B11D
:1043D0000698404206903548007AC0F3811056F89E
:1043E000200007903148008900F4807010B10798D0
:1043F000404207900598C117A0FB042301FB04313C
:1044000000FB0510810041EA927005900698C117E3
:10441000A0FB042301FB043100FB0510810041EAED
:10442000927006900798C117A0FB042301FB04318A
:1044300000FB0510810041EA927007900598000E7C
:104440008DF808000598000C8DF809000598000A01
:104450008DF80A000598C0B28DF80B000698000E82
:104460008DF80C000698000C8DF80D000698000AD7
:104470008DF80E000698C0B28DF80F000798000E58
:104480008DF810000798000C8DF811000798000AAD
:104490008DF812000798C0B28DF8130002AA0C2103
:1044A0004FF4257001F04AFF08B070BD44010020B0
:1044B00030B585B0044616A207CA02AB07C3C82CA4
:1044C00003DD4FF0FF3005B030BDC82090FBF4F0A5
:1044D000401E85B2280A8DF80000E8B28DF8010070
:1044E0006A46022140F2162001F028FF10B14FF079
:1044F000FF30E8E702AA0C2140F6C12001F01EFFC0
:1045000010B14FF0FF30DEE7044884810020DAE785
:10451000FEF2ABC4AAF1DFDFBBAFDFDF4401002056
:104520001FB504464848007A00F0030054F8200004
:1045300001904548007A00F0040010B10198404213
:1045400001904148007AC0F3C10054F82000029065
:104550003D48007A00F0200010B1029840420290DD
:104560003948007AC0F3811054F82000039036488F
:10457000008900F4807010B10398404203903349E1
:10458000019880FB0101800F40EA810001902F49D2
:10459000029880FB0110820042EA917002902B4940
:1045A000039880FB0110820042EA91700390019809
:1045B000000E8DF800000198000C8DF801000198A4
:1045C000000A8DF802000198C0B28DF803006A4617
:1045D00004214FF4747001F0B1FE18B14FF0FF30B8
:1045E00004B010BD0298000E8DF800000298000C77
:1045F0008DF801000298000A8DF802000298C0B2FE
:104600008DF803006A4604214FF4757001F096FEA0
:1046100010B14FF0FF30E3E70398000E8DF8000073
:104620000398000C8DF801000398000A8DF8020031
:104630000398C0B28DF803006A4604214FF47670E7
:1046400001F07CFECCE700004401002009E3CA022F
:1046500010B586B0044647A00068039046A00068E5
:10466000029046A00068019045A00068009004F008
:10467000030003A9085C8DF8140003A8C4F3C1016A
:10468000405C8DF8150003A8C4F38111405C8DF8DF
:10469000160004F0030002A9085C8DF8100002A8BF
:1046A000C4F3C101405C8DF8110002A8C4F381116C
:1046B000405C8DF8120005AA032140F2264001F06B
:1046C0003DFE18B14FF0FF3006B010BD04AA032123
:1046D00040F22A4001F032FE10B14FF0FF30F3E714
:1046E000019805900098049004F0040058B19DF8DA
:1046F000140040F001008DF814009DF8100040F007
:1047000001008DF8100004F0200058B19DF815004C
:1047100040F001008DF815009DF8110040F00100F7
:104720008DF8110004F4807058B19DF8160040F027
:1047300001008DF816009DF8120040F001008DF880
:10474000120005AA03214FF4886001F0F7FD10B1B3
:104750004FF0FF30B8E704AA032140F2314001F0E6
:10476000EDFD10B14FF0FF30AEE7064804810020A8
:10477000AAE700004CCD6C000CC92C003656760020
:104780002646660044010020F8B505460E464FF463
:104790007A7095FBF0F000FB06F4200E8DF8000017
:1047A000200C8DF80100200A8DF80200E0B28DF88F
:1047B00003006A4604214FF4AE7001F0BFFDF8BD5E
:1047C00038B50446052094FBF0F084B220128DF831
:1047D0000000E0B28DF801006A4602214FF4AD708E
:1047E00001F0ACFD38BD38B50446052094FBF0F06F
:1047F00084B220128DF80000E0B28DF801006A4604
:1048000002214FF4AC7001F099FD38BD38B5044673
:104810000020009004F0010020B19DF8000040F05D
:104820003000009004F0020020B19DF8000040F03C
:104830000C00009004F0040020B19DF8000040F04E
:10484000030000906A4601214FF4A47001F076FD48
:1048500038BD38B50446012C01DA012402E0042CED
:1048600000DD0424601EC0B200906A46012140F2BF
:104870004F1001F063FD38BD2DE9FC4706460F4699
:1048800006F0070010B1B7F5C86F03DD4FF0FF3039
:10489000BDE8FC873846FBF7EEFE81465949FBF739
:1048A0001BFD8046684600F0FBFC9DF800000228D6
:1048B00006D0042816D0082826D0102848D135E084
:1048C0004FF08D414046FBF7D5FC8146FBF702FFD8
:1048D00084B24D494046FBF7CDFC8146FBF7FAFE1A
:1048E00085B238E04FF08C414046FBF7C3FC81466F
:1048F000FBF7F0FE84B245494046FBF7BBFC81461E
:10490000FBF7E8FE85B226E04FF08B414046FBF70F
:10491000B1FC8146FBF7DEFE84B23D494046FBF721
:10492000A9FC8146FBF7D6FE85B214E04FF08A4120
:104930004046FBF79FFC8146FBF7CCFE84B235492D
:104940004046FBF797FC8146FBF7C4FE85B202E0C8
:104950004FF0FF309CE700BF20128DF80400E0B25A
:104960008DF8050028128DF80600E8B28DF80700D2
:1049700006F00100A0B101AA02214FF4EA7001F093
:10498000DDFC10B14FF0FF3082E70DF1060202218D
:104990004FF4927001F0D2FC10B14FF0FF3077E786
:1049A00006F00200A0B101AA02214FF4EC7001F060
:1049B000C5FC10B14FF0FF306AE70DF1060202218D
:1049C0004FF4947001F0BAFC10B14FF0FF305FE784
:1049D00006F00400A0B101AA02214FF4EE7001F02C
:1049E000ADFC10B14FF0FF3052E70DF1060202218D
:1049F0004FF4967001F0A2FC10B14FF0FF3047E782
:104A0000002045E700004843000040460000C04544
:104A1000000040450000C04438B50446052094FB22
:104A2000F0F085B228128DF80000E8B28DF8010090
:104A30006A4602214FF4EF7001F080FC38BD38B5B2
:104A40000446052094FBF0F085B228128DF8000092
:104A5000E8B28DF801006A4602214FF4ED7001F0D2
:104A60006DFC38BD70B504460D46E1B20548FEF751
:104A70003DF900BF80210348FEF7BEF80028F9D0B9
:104A8000204670BD004800407CB50546284949686D
:104A9000087801AB04220D21FDF78EF808B107203C
:104AA0007CBD9DF80700C0F301109DF8041001F0D3
:104AB000E00140EAE1008DF800009DF80700C0F336
:104AC00081009DF8051001F0E00140EAE1008DF859
:104AD00001009DF8070000F003009DF8061001F0AA
:104AE000E00140EAE1008DF8020000241CE01DF81E
:104AF000040018B9002045F8240013E00D4845F8DB
:104B0000240006E055F824000B49FBF7B3FB45F8F9
:104B100024001DF80400401EC0B20DF80400002857
:104B2000F0D100BF601CC4B2032CE0DB0020B7E76B
:104B3000A00000207B14AE3E1D5A843F7047000049
:104B40002DE9F04F87B005460C46914601208DF8BF
:104B5000100000208DF81100FE4A1268917CFD4A79
:104B60005268107804AB0222FDF762F820B14FF0D2
:104B7000FF3007B0BDE8F08FC820FEF785FF0020AA
:104B80008DF81000F34A1268D17BF24A526810780F
:104B900004AB0122FDF74CF810B14FF0FF30E8E70D
:104BA000EC4A12685179EB4A5268107804AB012242
:104BB000FDF73EF810B14FF0FF30DAE7E54A126832
:104BC000917CE44A5268107804AB0122FDF730F87A
:104BD00010B14FF0FF30CCE7DE4A1268D17DDD4ADC
:104BE0005268107804AB0122FDF722F810B14FF0A3
:104BF000FF30BEE7D74A12681179D64A526810785A
:104C000004AB0122FDF714F810B14FF0FF30B0E70C
:104C10000C208DF81000CF4A12681179CD4A5268E5
:104C2000107804AB0122FDF703F810B14FF0FF300C
:104C30009FE70F20FEF728FFC648806A407A8DF86C
:104C40001000C44A12689178C24A5268107804ABC6
:104C50000122FCF7EDFF10B14FF0FF3089E7BD48AE
:104C6000806A007A8DF81000BA4A12685178B94A01
:104C70005268107804AB0122FCF7DAFF10B14FF054
:104C8000FF3076E7B9F1000F07D0B248806A807A2A
:104C900040F0E0008DF8100004E0AE48806A807AB1
:104CA0008DF81000AB4A12689179AA4A52681078C0
:104CB00004AB0122FCF7BCFF10B14FF0FF3058E706
:104CC000B9F1000F07D0A348806AC07A40F0E00035
:104CD0008DF8100003E0A048C07A8DF810009D4ABE
:104CE0001268D1799B4A5268107804AB0122FCF714
:104CF0009FFF10B14FF0FF303BE7B9F1000F02D03A
:104D0000C820FEF7C1FE40208DF81000914A1268BD
:104D10001179904A5268107804AB0122FCF788FFA1
:104D200010B14FF0FF3024E778208DF81000894A49
:104D300012685179874A5268107804AB0122FCF757
:104D400077FF10B14FF0FF3013E783498889FEF7F2
:104D50009BFE00208DF810007E4A126851797D4A32
:104D60005268107804AB0122FCF762FF10B14FF0DB
:104D7000FF30FEE6774A1268917A764A52681078D8
:104D800004AB0222FCF718FF10B14FF0FF30F0E641
:104D90009DF811009DF8101040EA012B0C209BFBA0
:104DA000F0F0C6B20020A86068602860A060606073
:104DB0002060824665E0674A1268D17A654A526887
:104DC000107804AB0C22FCF7F7FE10B14FF0FF3067
:104DD000CFE69DF811009DF8101040EA012000B2C6
:104DE000ADF808009DF813009DF8121040EA01206C
:104DF00000B2ADF80A009DF815009DF8141040EAC5
:104E0000012000B2ADF80C00BDF90810206808447C
:104E10002060BDF90A10606808446060BDF90C109C
:104E2000A0680844A0609DF817009DF8161040EA9D
:104E3000012000B2ADF800009DF819009DF818108F
:104E400040EA012000B2ADF802009DF81B009DF879
:104E50001A1040EA012000B2ADF80400BDF90010BC
:104E6000286808442860BDF9021068680844686032
:104E7000BDF90410A8680844A8600AF1010000F018
:104E8000FF0AB24597DB3448D0F800C02868C11744
:104E9000090441EA10410704624600233846FBF743
:104EA00041F932460023CDE90201FBF73BF92860C6
:104EB0002948D0F800C06868C117090441EA1041C8
:104EC0000704624600233846FBF72CF932460023DC
:104ED000CDE90201FBF726F968601F48D0F800C051
:104EE000A868C117090441EA10410704624600237B
:104EF0003846FBF717F932460023CDE90201FBF7EC
:104F000011F9A8601448D0F804C02168C81700043B
:104F100040EA11480F046246002338464146FBF739
:104F200001F932460023CDE90201FBF7FBF82060CE
:104F30000948D0F804C06068C117090441EA10416B
:104F40000704624600233846FBF7ECF8324600239C
:104F500004E00000A000002050650008CDE9020137
:104F6000FBF7E0F860601148D0F804C0A068C117F2
:104F7000090441EA10410704624600233846FBF762
:104F8000D1F832460023CDE90201FBF7CBF8A0604F
:104F9000A068002804DDA068A0F58030A06003E0D0
:104FA000A06800F58030A0600020E2E550650008B0
:104FB00001200149C8707047940100202DE9FC5F71
:104FC00006460F4600253D494968087801AB032293
:104FD0000D21FCF7F1FD10B10720BDE8FC9F9DF805
:104FE000040000F01F008DF804009DF8050000F09B
:104FF0001F008DF805009DF8060000F01F008DF8D9
:105000000600002456E056F8240057F82410A0EBC0
:10501000010BBBF1000F01DB594601E0CBF10001B0
:105020000846FBF71FFB4FF08F410090FBF754F948
:10503000814601A8005D68B321490868FBF71BFBA6
:10504000834659461F48FBF747F9804604E01E494E
:105050004046FBF70FF9804601A8005D401EC0B234
:1050600001A908550028F2D141464846FBF734F91A
:1050700083464FF07E51FBF7F7F882462AF0004B4B
:105080000F4881695846FBF7C1FB12D20120A040AE
:1050900005430EE00A4801694846FBF7ADFB05D31E
:1050A000074841694846FBF7B1FB02D20120A04006
:1050B0000543641C032CA6DB28468EE7A0000020D5
:1050C0005065000800B04C4554E3853F10B50446D8
:1050D000204600F00FF80346E01C00F00BF843EA0E
:1050E000C00083B2A01D00F005F843EA801083B22F
:1050F000184610BD014691F90020002A01DD00206C
:105100001EE091F90020002A01DA042018E091F94C
:105110000120002A01DD012012E091F90120002A7E
:1051200001DA05200CE091F90220002A01DD0220BD
:1051300006E091F90220002A01DA062000E00720AB
:1051400070470000FDF716FD0EA0FDF73BFEFCF7D3
:105150005DFEFDF72DFAFCF7FBFAFF20FCF76CFB78
:10516000FCF704F900F050F800210846FDF7F6F8C6
:10517000FCF730FCFCF78CFDFBF768FEFBF7B0FE9C
:1051800000BFFEE7757361727420697320726561F8
:1051900064790D0A0000000070B50446002624F072
:1051A0000104184890F8240008B1002070BD15488B
:1051B000807A10B94FF0FF30F8E71248057C807A0A
:1051C0002040104908740846007CA04202D04FF0ED
:1051D000FF3600E0002614B90A48007D18B101200E
:1051E00001F034F902E0002001F030F93CB100F0A8
:1051F00091FC20B1034805744FF0FF30D6E73046EC
:10520000D4E70000A000002070B500F023F90446A8
:105210000CB1FDF77DF8782001F028F808B10220E4
:1052200070BD7820FFF7B8FF08B10320F8E76420CD
:1052300000F0CEFF08B10420F2E70E211648FAF77D
:10524000A9FF032014490870FEF7A8FF08B1052044
:10525000E6E71248FFF73AFF0546FFF7F9F908B10C
:105260000620DDE740F273100B49C880C888FEF7BE
:1052700069FC08B10720D3E76420FFF719F908B1EA
:105280000820CDE7012000F09FFE01200249487070
:1052900001F094F80020C3E794010020CD00002025
:1052A00001461148407A30B1012807D0022808D0C1
:1052B00003280CD108E0022008700BE004200870DD
:1052C00008E00820087005E01020087002E04FF0A8
:1052D000FF30704700BF0448C07C18B10878400612
:1052E000000E08700020F4E7A000002001461348DB
:1052F000407A30B1012808D002280AD0032810D102
:105300000BE04FF4804008800EE041F69C7008806E
:105310000AE04FF48050088006E04FF400600880F7
:1053200002E04FF0FF30704700BF0448C07C10B16E
:105330000888401008800020F5E70000A000002049
:1053400001460248007C087000207047A000002041
:1053500001460F48007A30B1012807D0022809D051
:1053600003280FD10AE0FA2008800EE04FF4FA700B
:1053700008800AE04FF47A70088006E04FF4FA6083
:10538000088002E00020088000BF00BF00207047B6
:10539000A000002001460E48007A30B1012807D055
:1053A000022808D003280CD108E00A4808600BE066
:1053B0000948086008E00948086005E008480860F6
:1053C00002E04FF0FF30704700BF0020FBE7000015
:1053D000A000002000000343000083423333034257
:1053E0003333834101461248C07A082817D2DFE8D8
:1053F00000F01704070A0D101318BC20088013E0F2
:105400006220088010E02A2008800DE01420088027
:105410000AE00A20088007E00520088004E000BFB9
:1054200000BF0020088000BF00BF002070470000C0
:10543000A00000200146064890F8240010B14FF06B
:10544000FF3070470248C08908800020F9E700005B
:10545000A00000201CB580208DF80000654A12686D
:10546000917C644A526810786B460122FCF7E0FB9D
:1054700010B14FF0FF301CBD6420FEF705FB00208B
:105480008DF800005B4A1268917C5A4A5268107885
:105490006B460122FCF7CCFB10B14FF0FF30EAE77E
:1054A000544A1268917D534A526810786B4606221E
:1054B000FCF782FB10B14FF0FF30DCE79DF80500F0
:1054C000C007400F9DF8031001F0010140EA4100C0
:1054D0009DF8011001F0010140EA010494B1012C92
:1054E00003D101214348C17431E0022C03D10021D2
:1054F0004048C1742BE021463FA0FDF763FC4FF00C
:10550000FF30B8E73B4A1268D1783A4A52681078BF
:105510006B460122FCF750FB10B14FF0FF30AAE7B9
:105520009DF8000000F00F042CB93D48FDF74AFC3F
:105530004FF0FF309FE7042C06D13AA0FDF742FC64
:1055400001212C48C17402E000212A48C174FF21C6
:1055500028488172FF2027490872FF21254841729F
:10556000C1724FF6FF71C181FF2101748174012165
:10557000017380F82210002180F823104175017515
:105580001630016041608160163880F8241080F880
:105590002510C1844FF4FA6000F05EFD10B14FF0A9
:1055A000FF3068E7022000F027FC10B14FF0FF3019
:1055B00061E72A2000F0CAFD10B14FF0FF305AE732
:1055C000322000F005FE10B14FF0FF3053E700200D
:1055D000FFF7E2FD10B14FF0FF304CE7002000F084
:1055E0004DFC10B14FF0FF3045E7002000F03EFECB
:1055F000002040E7A0000020556E737570706F7238
:1056000074656420736F6674776172652070726F61
:1056100064756374207265762025642E0A0000008C
:105620006072000848616C662073656E7369746906
:1056300076697479207061727420666F756E642E5D
:105640000A0000002DE9F04385B005460E4690465D
:105650009946294890F8250020B14FF0FF3005B059
:10566000BDE8F08316B94FF0FF30F8E7002423E0DF
:10567000281B102801DD102000E0281B87B23219FA
:105680003946204600F05AFE10B14FF0FF30E6E7F1
:1056900001AA3946204600F0FDF910B14FF0FF3065
:1056A000DDE730193A4601A9FAF77FFD10B16FF036
:1056B0000100D4E7E01984B2AC42D9DB4FEA2820DC
:1056C0008DF8000008F0FF008DF801000A4A12680A
:1056D000917E094A526810786B460222FCF7A8FABC
:1056E00010B14FF0FF30BAE70121034880F82510D0
:1056F000A0F826900020B2E7A000002038B50446AC
:10570000282C02DD4FF0FF3038BDDCB9002000F05E
:10571000E7FC00208DF8000007208DF801002E4ADC
:105720001268917C2C4A526810786B460222FCF772
:105730007FFA10B14FF0FF30E6E7002126480175EF
:105740000020E1E7012000F0CBFC20208DF80000D4
:10575000012C06D100208DF80100052000F0F6FC98
:1057600017E0052C06DC01208DF80100052000F073
:10577000EDFC0EE0142C06DC02208DF801000A205E
:1057800000F0E4FC05E003208DF80100142000F097
:10579000DDFC9DF80100072101EB8010C0B28DF8FF
:1057A00001000D4A1268917C0B4A526810786B46D2
:1057B0000222FCF73DFA10B14FF0FF30A4E70821B8
:1057C0000548817200210173012101750020FFF756
:1057D000E3FC002098E70000A00000202DE9FE4F28
:1057E0000746884692461D46DDF830B00026002464
:1057F000774890F8240010B1601EBDE8FE8F0020AD
:1058000028707348807A10B94FF0FF30F5E7704880
:10581000007C10B94FF0FF30EFE76D48007C00F0DE
:10582000400008B1B01CC6B26948007C00F02000FE
:1058300008B1B01CC6B26648007C00F0100008B188
:10584000B01CC6B26248007C00F0080008B1B01D70
:10585000C6B25F4A1268917A5D4A526810786B4608
:105860000222FCF7A9F910B14FF0FF30C5E79DF80F
:1058700001009DF8001040EA0129B14501DA00203D
:10588000BBE7534840684088B9EB600F17DD504ACA
:105890001268517C4E4A526810786B460122FCF720
:1058A0008BF910B14FF0FF30A7E79DF8000000F032
:1058B000100020B100F02EF96FF001009DE7504676
:1058C000FFF73CF9424A1268D17A414A526810788F
:1058D0006B463246FCF770F910B14FF0FF308CE7A1
:1058E00099FBF6F0401E8BF8000000202870B442AF
:1058F0002AD03748007C00F0080028B3601C1DF84F
:1059000000001DF8041040EA012000B2A8F80000D1
:10591000E01C1DF80010A01C1DF8000041EA00204A
:1059200000B2A8F80200601D1DF80010201D1DF82F
:10593000000041EA002000B2A8F80400287840F0F6
:1059400008002870A01D84B2B44213D02048007C07
:1059500000F0400070B1601C1DF800001DF804103C
:1059600040EA012000B23880287840F040002870DA
:10597000A01C84B2B44213D01548007C00F0200073
:1059800070B1601C1DF800001DF8041040EA0120F1
:1059900000B27880287840F020002870A01C84B2E3
:1059A000B44213D00A48007C00F0100070B1601CB3
:1059B0001DF800001DF8041040EA012000B2B88074
:1059C000287840F010002870A01C84B2002014E752
:1059D000A0000020F8B504460F4616462C4890F863
:1059E000240010B94FF0FF30F8BD2948807A10B973
:1059F0004FF0FF30F8E7264A1268917A244A52683D
:105A000010786B460222FCF7D7F810B14FF0FF3048
:105A1000EAE79DF801009DF8001040EA0125A54243
:105A200003DA00203070401EDEE7194840684088E5
:105A3000B5EB600F17DD164A1268517C144A5268A4
:105A400010786B460122FCF7B7F810B14FF0FF3029
:105A5000CAE79DF8000000F0100020B100F05AF8ED
:105A60006FF00100C0E7E2B2094B1B68D97A084B1E
:105A70005B6818783B46FCF79FF810B14FF0FF3099
:105A8000B2E795FBF4F0401E30700020ACE7000058
:105A9000A0000020F8B504460D46164616B94FF092
:105AA000FF30F8BD1A48807A10B94FF0FF30F8E7A0
:105AB00020128DF80000E0B28DF801009DF8010081
:105AC0002844134949684989884202DD4FF0FF3074
:105AD000E7E70F4A1268117E0D4A526810786B464C
